{
  "_format": "hh-sol-artifact-1",
  "contractName": "Project",
  "sourceName": "contracts/Project.sol",
  "abi": [
    {
      "inputs": [
        {
          "internalType": "uint16",
          "name": "_projectID",
          "type": "uint16"
        },
        {
          "internalType": "string",
          "name": "_title",
          "type": "string"
        },
        {
          "internalType": "string",
          "name": "_description",
          "type": "string"
        },
        {
          "internalType": "uint256",
          "name": "_project_target_price",
          "type": "uint256"
        },
        {
          "internalType": "uint256",
          "name": "_project_deadline_date_unix",
          "type": "uint256"
        },
        {
          "internalType": "uint256",
          "name": "_project_minimum_fund_price",
          "type": "uint256"
        },
        {
          "internalType": "address",
          "name": "_projectOwner",
          "type": "address"
        },
        {
          "internalType": "bytes32",
          "name": "_cid",
          "type": "bytes32"
        }
      ],
      "stateMutability": "nonpayable",
      "type": "constructor"
    },
    {
      "inputs": [
        {
          "internalType": "uint256",
          "name": "given",
          "type": "uint256"
        },
        {
          "internalType": "uint256",
          "name": "required",
          "type": "uint256"
        }
      ],
      "name": "NeedToSetHigherMinFundPrice",
      "type": "error"
    },
    {
      "inputs": [
        {
          "internalType": "uint256",
          "name": "given",
          "type": "uint256"
        },
        {
          "internalType": "uint256",
          "name": "required",
          "type": "uint256"
        }
      ],
      "name": "NeedToSetHigherTarget",
      "type": "error"
    },
    {
      "inputs": [],
      "name": "NotFundingComplete",
      "type": "error"
    },
    {
      "inputs": [],
      "name": "NotInAwaitingFunding",
      "type": "error"
    },
    {
      "inputs": [],
      "name": "NotProjectOwner",
      "type": "error"
    },
    {
      "inputs": [],
      "name": "SpendMoreEth",
      "type": "error"
    },
    {
      "anonymous": false,
      "inputs": [
        {
          "indexed": true,
          "internalType": "address",
          "name": "previousOwner",
          "type": "address"
        },
        {
          "indexed": true,
          "internalType": "address",
          "name": "newOwner",
          "type": "address"
        }
      ],
      "name": "OwnershipTransferred",
      "type": "event"
    },
    {
      "stateMutability": "payable",
      "type": "fallback"
    },
    {
      "inputs": [
        {
          "internalType": "address",
          "name": "",
          "type": "address"
        }
      ],
      "name": "addressToAmount",
      "outputs": [
        {
          "internalType": "uint256",
          "name": "",
          "type": "uint256"
        }
      ],
      "stateMutability": "view",
      "type": "function"
    },
    {
      "inputs": [],
      "name": "fund",
      "outputs": [],
      "stateMutability": "payable",
      "type": "function"
    },
    {
      "inputs": [],
      "name": "getProjectDetails",
      "outputs": [
        {
          "internalType": "string",
          "name": "_title",
          "type": "string"
        },
        {
          "internalType": "string",
          "name": "_description",
          "type": "string"
        }
      ],
      "stateMutability": "view",
      "type": "function"
    },
    {
      "inputs": [],
      "name": "i_deadline_date_unix",
      "outputs": [
        {
          "internalType": "uint256",
          "name": "",
          "type": "uint256"
        }
      ],
      "stateMutability": "view",
      "type": "function"
    },
    {
      "inputs": [],
      "name": "i_minimum_fund_price_in_eth",
      "outputs": [
        {
          "internalType": "uint256",
          "name": "",
          "type": "uint256"
        }
      ],
      "stateMutability": "view",
      "type": "function"
    },
    {
      "inputs": [],
      "name": "i_projectID",
      "outputs": [
        {
          "internalType": "uint16",
          "name": "",
          "type": "uint16"
        }
      ],
      "stateMutability": "view",
      "type": "function"
    },
    {
      "inputs": [],
      "name": "i_projectOwner",
      "outputs": [
        {
          "internalType": "address",
          "name": "",
          "type": "address"
        }
      ],
      "stateMutability": "view",
      "type": "function"
    },
    {
      "inputs": [],
      "name": "i_target_price",
      "outputs": [
        {
          "internalType": "uint256",
          "name": "",
          "type": "uint256"
        }
      ],
      "stateMutability": "view",
      "type": "function"
    },
    {
      "inputs": [],
      "name": "ipfs_cid",
      "outputs": [
        {
          "internalType": "bytes32",
          "name": "",
          "type": "bytes32"
        }
      ],
      "stateMutability": "view",
      "type": "function"
    },
    {
      "inputs": [],
      "name": "markFundingComplete",
      "outputs": [],
      "stateMutability": "nonpayable",
      "type": "function"
    },
    {
      "inputs": [],
      "name": "owner",
      "outputs": [
        {
          "internalType": "address",
          "name": "",
          "type": "address"
        }
      ],
      "stateMutability": "view",
      "type": "function"
    },
    {
      "inputs": [
        {
          "internalType": "uint256",
          "name": "",
          "type": "uint256"
        }
      ],
      "name": "project_funders",
      "outputs": [
        {
          "internalType": "address",
          "name": "",
          "type": "address"
        }
      ],
      "stateMutability": "view",
      "type": "function"
    },
    {
      "inputs": [],
      "name": "renounceOwnership",
      "outputs": [],
      "stateMutability": "nonpayable",
      "type": "function"
    },
    {
      "inputs": [],
      "name": "s_description",
      "outputs": [
        {
          "internalType": "string",
          "name": "",
          "type": "string"
        }
      ],
      "stateMutability": "view",
      "type": "function"
    },
    {
      "inputs": [],
      "name": "s_projectState",
      "outputs": [
        {
          "internalType": "enum Project.State",
          "name": "",
          "type": "uint8"
        }
      ],
      "stateMutability": "view",
      "type": "function"
    },
    {
      "inputs": [],
      "name": "s_title",
      "outputs": [
        {
          "internalType": "string",
          "name": "",
          "type": "string"
        }
      ],
      "stateMutability": "view",
      "type": "function"
    },
    {
      "inputs": [],
      "name": "s_totalFundingAmount",
      "outputs": [
        {
          "internalType": "uint256",
          "name": "",
          "type": "uint256"
        }
      ],
      "stateMutability": "view",
      "type": "function"
    },
    {
      "inputs": [
        {
          "internalType": "address",
          "name": "newOwner",
          "type": "address"
        }
      ],
      "name": "transferOwnership",
      "outputs": [],
      "stateMutability": "nonpayable",
      "type": "function"
    },
    {
      "inputs": [],
      "name": "withdraw",
      "outputs": [],
      "stateMutability": "payable",
      "type": "function"
    },
    {
      "stateMutability": "payable",
      "type": "receive"
    }
  ],
  "bytecode": "0x6101406040523480156200001257600080fd5b5060405162001f2a38038062001f2a83398181016040528101906200003891906200065d565b620000586200004c6200022a60201b60201c565b6200023260201b60201c565b678ac7230489e80000670de0b6b3a76400008662000077919062000793565b11620000c65784678ac7230489e800006040517f4024d4cb000000000000000000000000000000000000000000000000000000008152600401620000bd92919062000805565b60405180910390fd5b670de0b6b3a76400008084620000dd919062000793565b116200012c5782670de0b6b3a76400006040517f1689125f0000000000000000000000000000000000000000000000000000000081526004016200012392919062000805565b60405180910390fd5b8761ffff1660a08161ffff1681525050670de0b6b3a76400008562000152919062000793565b60c081815250508360e08181525050670de0b6b3a76400008362000177919062000793565b6101008181525050866001908051906020019062000197929190620002f6565b508560029080519060200190620001b0929190620002f6565b506000600460006101000a81548160ff02191690836002811115620001da57620001d962000832565b5b02179055508173ffffffffffffffffffffffffffffffffffffffff166101208173ffffffffffffffffffffffffffffffffffffffff168152505080608081815250505050505050505050620008c6565b600033905090565b60008060009054906101000a900473ffffffffffffffffffffffffffffffffffffffff169050816000806101000a81548173ffffffffffffffffffffffffffffffffffffffff021916908373ffffffffffffffffffffffffffffffffffffffff1602179055508173ffffffffffffffffffffffffffffffffffffffff168173ffffffffffffffffffffffffffffffffffffffff167f8be0079c531659141344cd1fd0a4f28419497f9722a3daafe3b4186f6b6457e060405160405180910390a35050565b828054620003049062000890565b90600052602060002090601f01602090048101928262000328576000855562000374565b82601f106200034357805160ff191683800117855562000374565b8280016001018555821562000374579182015b828111156200037357825182559160200191906001019062000356565b5b50905062000383919062000387565b5090565b5b80821115620003a257600081600090555060010162000388565b5090565b6000604051905090565b600080fd5b600080fd5b600061ffff82169050919050565b620003d381620003ba565b8114620003df57600080fd5b50565b600081519050620003f381620003c8565b92915050565b600080fd5b600080fd5b6000601f19601f8301169050919050565b7f4e487b7100000000000000000000000000000000000000000000000000000000600052604160045260246000fd5b6200044e8262000403565b810181811067ffffffffffffffff8211171562000470576200046f62000414565b5b80604052505050565b600062000485620003a6565b905062000493828262000443565b919050565b600067ffffffffffffffff821115620004b657620004b562000414565b5b620004c18262000403565b9050602081019050919050565b60005b83811015620004ee578082015181840152602081019050620004d1565b83811115620004fe576000848401525b50505050565b60006200051b620005158462000498565b62000479565b9050828152602081018484840111156200053a5762000539620003fe565b5b62000547848285620004ce565b509392505050565b600082601f830112620005675762000566620003f9565b5b81516200057984826020860162000504565b91505092915050565b6000819050919050565b620005978162000582565b8114620005a357600080fd5b50565b600081519050620005b7816200058c565b92915050565b600073ffffffffffffffffffffffffffffffffffffffff82169050919050565b6000620005ea82620005bd565b9050919050565b620005fc81620005dd565b81146200060857600080fd5b50565b6000815190506200061c81620005f1565b92915050565b6000819050919050565b620006378162000622565b81146200064357600080fd5b50565b60008151905062000657816200062c565b92915050565b600080600080600080600080610100898b031215620006815762000680620003b0565b5b6000620006918b828c01620003e2565b985050602089015167ffffffffffffffff811115620006b557620006b4620003b5565b5b620006c38b828c016200054f565b975050604089015167ffffffffffffffff811115620006e757620006e6620003b5565b5b620006f58b828c016200054f565b9650506060620007088b828c01620005a6565b95505060806200071b8b828c01620005a6565b94505060a06200072e8b828c01620005a6565b93505060c0620007418b828c016200060b565b92505060e0620007548b828c0162000646565b9150509295985092959890939650565b7f4e487b7100000000000000000000000000000000000000000000000000000000600052601160045260246000fd5b6000620007a08262000582565b9150620007ad8362000582565b9250817fffffffffffffffffffffffffffffffffffffffffffffffffffffffffffffffff0483118215151615620007e957620007e862000764565b5b828202905092915050565b620007ff8162000582565b82525050565b60006040820190506200081c6000830185620007f4565b6200082b6020830184620007f4565b9392505050565b7f4e487b7100000000000000000000000000000000000000000000000000000000600052602160045260246000fd5b7f4e487b7100000000000000000000000000000000000000000000000000000000600052602260045260246000fd5b60006002820490506001821680620008a957607f821691505b60208210811415620008c057620008bf62000861565b5b50919050565b60805160a05160c05160e051610100516101205161160662000924600039600081816105bd0152610b4501526000818161041d0152610a2b01526000610b69015260006109bc01526000610992015260006109f401526116066000f3fe6080604052600436106101185760003560e01c80638bea3ddb116100a0578063b78835f711610064578063b78835f714610359578063eac13fd614610384578063f122b434146103af578063f2fde38b146103c6578063ff3a9c7e146103ef57610127565b80638bea3ddb146102915780638da5cb5b146102bc57806399a8502d146102e7578063acd00abb14610312578063b60d42881461034f57610127565b80636f8939b6116100e75780636f8939b6146101ce5780637032a634146101f9578063715018a6146102245780637f0d5b601461023b578063817cfe971461026657610127565b80633c7e7d28146101315780633ccfd60b1461016e5780634ef89719146101785780636a988abc146101a357610127565b366101275761012561041b565b005b61012f61041b565b005b34801561013d57600080fd5b5061015860048036038101906101539190610fbf565b6105a3565b6040516101659190611005565b60405180910390f35b6101766105bb565b005b34801561018457600080fd5b5061018d610902565b60405161019a91906110b9565b60405180910390f35b3480156101af57600080fd5b506101b8610990565b6040516101c591906110f8565b60405180910390f35b3480156101da57600080fd5b506101e36109b4565b6040516101f09190611005565b60405180910390f35b34801561020557600080fd5b5061020e6109ba565b60405161021b9190611005565b60405180910390f35b34801561023057600080fd5b506102396109de565b005b34801561024757600080fd5b506102506109f2565b60405161025d919061112c565b60405180910390f35b34801561027257600080fd5b5061027b610a16565b60405161028891906111be565b60405180910390f35b34801561029d57600080fd5b506102a6610a29565b6040516102b39190611005565b60405180910390f35b3480156102c857600080fd5b506102d1610a4d565b6040516102de91906111e8565b60405180910390f35b3480156102f357600080fd5b506102fc610a76565b60405161030991906110b9565b60405180910390f35b34801561031e57600080fd5b506103396004803603810190610334919061122f565b610b04565b60405161034691906111e8565b60405180910390f35b61035761041b565b005b34801561036557600080fd5b5061036e610b43565b60405161037b91906111e8565b60405180910390f35b34801561039057600080fd5b50610399610b67565b6040516103a69190611005565b60405180910390f35b3480156103bb57600080fd5b506103c4610b8b565b005b3480156103d257600080fd5b506103ed60048036038101906103e89190610fbf565b610bc0565b005b3480156103fb57600080fd5b50610404610c44565b60405161041292919061125c565b60405180910390f35b7f00000000000000000000000000000000000000000000000000000000000000003411610474576040517fecf05e1000000000000000000000000000000000000000000000000000000000815260040160405180910390fd5b6000600281111561048857610487611147565b5b600460009054906101000a900460ff1660028111156104aa576104a9611147565b5b146104e1576040517f9c916c9700000000000000000000000000000000000000000000000000000000815260040160405180910390fd5b6006339080600181540180825580915050600190039060005260206000200160009091909190916101000a81548173ffffffffffffffffffffffffffffffffffffffff021916908373ffffffffffffffffffffffffffffffffffffffff16021790555034600560003373ffffffffffffffffffffffffffffffffffffffff1673ffffffffffffffffffffffffffffffffffffffff16815260200190815260200160002081905550346003600082825461059a91906112c2565b92505081905550565b60056020528060005260406000206000915090505481565b7f000000000000000000000000000000000000000000000000000000000000000073ffffffffffffffffffffffffffffffffffffffff163373ffffffffffffffffffffffffffffffffffffffff1614610640576040517f7c2411e900000000000000000000000000000000000000000000000000000000815260040160405180910390fd5b6001600281111561065457610653611147565b5b600460009054906101000a900460ff16600281111561067657610675611147565b5b146106ad576040517fa29c800d00000000000000000000000000000000000000000000000000000000815260040160405180910390fd5b6000600680548060200260200160405190810160405280929190818152602001828054801561073157602002820191906000526020600020905b8160009054906101000a900473ffffffffffffffffffffffffffffffffffffffff1673ffffffffffffffffffffffffffffffffffffffff16815260200190600101908083116106e7575b5050505050905060005b81518110156107bc57600082828151811061075957610758611318565b5b602002602001015190506000600560008373ffffffffffffffffffffffffffffffffffffffff1673ffffffffffffffffffffffffffffffffffffffff168152602001908152602001600020819055505080806107b490611347565b91505061073b565b5060003373ffffffffffffffffffffffffffffffffffffffff166003546040516107e5906113c1565b60006040518083038185875af1925050503d8060008114610822576040519150601f19603f3d011682016040523d82523d6000602084013e610827565b606091505b505090508061086b576040517f08c379a000000000000000000000000000000000000000000000000000000000815260040161086290611422565b60405180910390fd5b6000600381905550600067ffffffffffffffff81111561088e5761088d611442565b5b6040519080825280602002602001820160405280156108bc5781602001602082028036833780820191505090505b50600690805190602001906108d2929190610eb5565b506002600460006101000a81548160ff021916908360028111156108f9576108f8611147565b5b02179055505050565b6002805461090f906114a0565b80601f016020809104026020016040519081016040528092919081815260200182805461093b906114a0565b80156109885780601f1061095d57610100808354040283529160200191610988565b820191906000526020600020905b81548152906001019060200180831161096b57829003601f168201915b505050505081565b7f000000000000000000000000000000000000000000000000000000000000000081565b60035481565b7f000000000000000000000000000000000000000000000000000000000000000081565b6109e6610d6b565b6109f06000610de9565b565b7f000000000000000000000000000000000000000000000000000000000000000081565b600460009054906101000a900460ff1681565b7f000000000000000000000000000000000000000000000000000000000000000081565b60008060009054906101000a900473ffffffffffffffffffffffffffffffffffffffff16905090565b60018054610a83906114a0565b80601f0160208091040260200160405190810160405280929190818152602001828054610aaf906114a0565b8015610afc5780601f10610ad157610100808354040283529160200191610afc565b820191906000526020600020905b815481529060010190602001808311610adf57829003601f168201915b505050505081565b60068181548110610b1457600080fd5b906000526020600020016000915054906101000a900473ffffffffffffffffffffffffffffffffffffffff1681565b7f000000000000000000000000000000000000000000000000000000000000000081565b7f000000000000000000000000000000000000000000000000000000000000000081565b610b93610d6b565b6001600460006101000a81548160ff02191690836002811115610bb957610bb8611147565b5b0217905550565b610bc8610d6b565b600073ffffffffffffffffffffffffffffffffffffffff168173ffffffffffffffffffffffffffffffffffffffff161415610c38576040517f08c379a0000000000000000000000000000000000000000000000000000000008152600401610c2f90611544565b60405180910390fd5b610c4181610de9565b50565b60608060016002818054610c57906114a0565b80601f0160208091040260200160405190810160405280929190818152602001828054610c83906114a0565b8015610cd05780601f10610ca557610100808354040283529160200191610cd0565b820191906000526020600020905b815481529060010190602001808311610cb357829003601f168201915b50505050509150808054610ce3906114a0565b80601f0160208091040260200160405190810160405280929190818152602001828054610d0f906114a0565b8015610d5c5780601f10610d3157610100808354040283529160200191610d5c565b820191906000526020600020905b815481529060010190602001808311610d3f57829003601f168201915b50505050509050915091509091565b610d73610ead565b73ffffffffffffffffffffffffffffffffffffffff16610d91610a4d565b73ffffffffffffffffffffffffffffffffffffffff1614610de7576040517f08c379a0000000000000000000000000000000000000000000000000000000008152600401610dde906115b0565b60405180910390fd5b565b60008060009054906101000a900473ffffffffffffffffffffffffffffffffffffffff169050816000806101000a81548173ffffffffffffffffffffffffffffffffffffffff021916908373ffffffffffffffffffffffffffffffffffffffff1602179055508173ffffffffffffffffffffffffffffffffffffffff168173ffffffffffffffffffffffffffffffffffffffff167f8be0079c531659141344cd1fd0a4f28419497f9722a3daafe3b4186f6b6457e060405160405180910390a35050565b600033905090565b828054828255906000526020600020908101928215610f2e579160200282015b82811115610f2d5782518260006101000a81548173ffffffffffffffffffffffffffffffffffffffff021916908373ffffffffffffffffffffffffffffffffffffffff16021790555091602001919060010190610ed5565b5b509050610f3b9190610f3f565b5090565b5b80821115610f58576000816000905550600101610f40565b5090565b600080fd5b600073ffffffffffffffffffffffffffffffffffffffff82169050919050565b6000610f8c82610f61565b9050919050565b610f9c81610f81565b8114610fa757600080fd5b50565b600081359050610fb981610f93565b92915050565b600060208284031215610fd557610fd4610f5c565b5b6000610fe384828501610faa565b91505092915050565b6000819050919050565b610fff81610fec565b82525050565b600060208201905061101a6000830184610ff6565b92915050565b600081519050919050565b600082825260208201905092915050565b60005b8381101561105a57808201518184015260208101905061103f565b83811115611069576000848401525b50505050565b6000601f19601f8301169050919050565b600061108b82611020565b611095818561102b565b93506110a581856020860161103c565b6110ae8161106f565b840191505092915050565b600060208201905081810360008301526110d38184611080565b905092915050565b600061ffff82169050919050565b6110f2816110db565b82525050565b600060208201905061110d60008301846110e9565b92915050565b6000819050919050565b61112681611113565b82525050565b6000602082019050611141600083018461111d565b92915050565b7f4e487b7100000000000000000000000000000000000000000000000000000000600052602160045260246000fd5b6003811061118757611186611147565b5b50565b600081905061119882611176565b919050565b60006111a88261118a565b9050919050565b6111b88161119d565b82525050565b60006020820190506111d360008301846111af565b92915050565b6111e281610f81565b82525050565b60006020820190506111fd60008301846111d9565b92915050565b61120c81610fec565b811461121757600080fd5b50565b60008135905061122981611203565b92915050565b60006020828403121561124557611244610f5c565b5b60006112538482850161121a565b91505092915050565b600060408201905081810360008301526112768185611080565b9050818103602083015261128a8184611080565b90509392505050565b7f4e487b7100000000000000000000000000000000000000000000000000000000600052601160045260246000fd5b60006112cd82610fec565b91506112d883610fec565b9250827fffffffffffffffffffffffffffffffffffffffffffffffffffffffffffffffff0382111561130d5761130c611293565b5b828201905092915050565b7f4e487b7100000000000000000000000000000000000000000000000000000000600052603260045260246000fd5b600061135282610fec565b91507fffffffffffffffffffffffffffffffffffffffffffffffffffffffffffffffff82141561138557611384611293565b5b600182019050919050565b600081905092915050565b50565b60006113ab600083611390565b91506113b68261139b565b600082019050919050565b60006113cc8261139e565b9150819050919050565b7f43616c6c206661696c6564000000000000000000000000000000000000000000600082015250565b600061140c600b8361102b565b9150611417826113d6565b602082019050919050565b6000602082019050818103600083015261143b816113ff565b9050919050565b7f4e487b7100000000000000000000000000000000000000000000000000000000600052604160045260246000fd5b7f4e487b7100000000000000000000000000000000000000000000000000000000600052602260045260246000fd5b600060028204905060018216806114b857607f821691505b602082108114156114cc576114cb611471565b5b50919050565b7f4f776e61626c653a206e6577206f776e657220697320746865207a65726f206160008201527f6464726573730000000000000000000000000000000000000000000000000000602082015250565b600061152e60268361102b565b9150611539826114d2565b604082019050919050565b6000602082019050818103600083015261155d81611521565b9050919050565b7f4f776e61626c653a2063616c6c6572206973206e6f7420746865206f776e6572600082015250565b600061159a60208361102b565b91506115a582611564565b602082019050919050565b600060208201905081810360008301526115c98161158d565b905091905056fea2646970667358221220c360305d6e2931cd958ce0eda2e397c149ad513e06e5723b7b6dc670be7b913d64736f6c63430008090033",
  "linkReferences": {},
  "deployedLinkReferences": {}
}